:100000000C9458000C9480000C9480000C94800098
:100010000C9480000C9480000C9480000C94800060
:100020000C9480000C9480000C9480000C94800050
:100030000C9480000C9480000C9480000C94800040
:100040000C9441060C9480000C94B1060C948B0621
:100050000C9480000C9480000C9480000C94800020
:100060000C94E3060C94800000000000250028009A
:100070002B00040404040404040402020202020229
:10008000030303030303010204081020408001025C
:1000900004081020010204081020000000080002DB
:1000A0000100000304070000000000000000020837
:1000B00011241FBECFEFD8E0DEBFCDBF11E0A0E01E
:1000C000B1E0E8EDF5E102C005900D92AC3BB1075F
:1000D000D9F723E0ACEBB1E001C01D92A733B20722
:1000E000E1F710E0C8E5D0E004C02197FE010E94CE
:1000F000E40AC735D107C9F70E946E080C94EA0AD2
:100100000C94000090E0FC01E656FF4F2491FC01A6
:10011000EA57FF4F3491FC01EE58FF4FE491EE2374
:10012000C9F0222339F0233001F1A8F4213019F16C
:10013000223029F1F0E0EE0FFF1FE859FF4FA591A3
:10014000B4918FB7F894EC91611126C030953E239D
:100150003C938FBF08952730A9F02830C9F0243090
:1001600049F7809180008F7D03C0809180008F7758
:1001700080938000DFCF84B58F7784BDDBCF84B5DB
:100180008F7DFBCF8091B0008F778093B000D2CF6E
:100190008091B0008F7DF9CF3E2BDACF3FB7F89436
:1001A0008091070290910802A0910902B0910A0281
:1001B00026B5A89B05C02F3F19F00196A11DB11DC2
:1001C0003FBFBA2FA92F982F8827BC01CD01620FFE
:1001D000711D811D911D42E0660F771F881F991FB9
:1001E0004A95D1F708958091040290910502891BE8
:1001F000990B089508950895AF92BF92CF92DF9220
:10020000EF92FF920F931F93CF93DF936C017B01CB
:100210008B01040F151FEB015E01AE18BF08C0175C
:10022000D10759F06991D601ED91FC910190F081CF
:10023000E02DC6010995892B79F7C501DF91CF9192
:100240001F910F91FF90EF90DF90CF90BF90AF90F4
:100250000895FC01538D448D252F30E0842F90E0CC
:10026000821B930B541710F0CF96089501970895B1
:10027000FC01918D828D981761F0A28DAE0FBF2F7A
:10028000B11D5D968C91928D9F5F9F73928F90E0D0
:1002900008958FEF9FEF0895FC01918D828D98173F
:1002A00031F0828DE80FF11D858D90E008958FEF7C
:1002B0009FEF0895FC01918D228D892F90E0805C45
:1002C0009F4F821B91098F73992708958BE792E0C6
:1002D0000E945A0121E0892B09F420E0822F089521
:1002E00080E090E0892B29F00E94660181110C9436
:1002F00000000895FC01A48DA80FB92FB11DA35AC9
:10030000BF4F2C91848D90E001968F739927848F35
:10031000A689B7892C93A089B1898C918370806458
:100320008C93938D848D981306C00288F389E02DF9
:1003300080818F7D80830895EF92FF920F931F93AA
:10034000CF93DF93EC0181E0888F9B8D8C8D981388
:100350001AC0E889F989808185FF15C09FB7F89494
:10036000EE89FF896083E889F989808183708064E0
:1003700080839FBF81E090E0DF91CF911F910F912B
:10038000FF90EF900895F62E0B8D10E00F5F1F4F3A
:100390000F731127E02E8C8D8E110CC00FB607FC49
:1003A000FACFE889F989808185FFF5CFCE010E94D7
:1003B0007A01F1CFEB8DEC0FFD2FF11DE35AFF4FCA
:1003C000F0829FB7F8940B8FEA89FB898081806265
:1003D000CFCFCF93DF93EC01888D8823B9F0AA8922
:1003E000BB89E889F9898C9185FD03C0808186FDF0
:1003F0000DC00FB607FCF7CF8C9185FFF2CF80813F
:1004000085FFEDCFCE010E947A01E9CFDF91CF9138
:1004100008952091DD01260F3327331F2132310546
:10042000ECF420917502FC0190E080E0243069F04A
:1004300082E00895A091DD012191AC0143545E4F0B
:10044000A40FB52FB11D2C930196861798F38091B8
:10045000DD01680F6093DD0180E0089581E008957B
:100460001092750281E08093540210924F0261E075
:1004700082E10E94820061E083E10E948200E9EB58
:10048000F0E080818E7F808380818D7F808388E40F
:100490008093B80085E48093BC000895CF93DF93E8
:1004A00091E09093BC018823B9F0C091B800D0913D
:1004B000BA008091BC008A7B8093BC0060E082E13E
:1004C0000E94820060E083E10E9482000E9430026C
:1004D000D093BA00C093B800DF91CF910895CF9226
:1004E000DF92EF92FF920F931F93CF93DF93D82F5A
:1004F000C62F613208F098C00E94CE006B017C01CB
:100500008091750281116BC081E0809375028093A8
:1005100054029FEF90935302109252029C0F9093BB
:1005200051028093500280915002DD0FD82BD0935E
:10053000500280914F02813009F078C010924F0232
:100540000E94CE006B017C01809150028093BB0021
:100550008091770290917802A0917902B0917A020D
:10056000892B8A2B8B2BA1F00E94CE000091770261
:10057000109178022091790230917A026C197D09EC
:100580008E099F09061717072807390708F448C07E
:100590008091BC0083FDD8CF85EC8093BC000E9485
:1005A000CE006B017C0180917502813009F440C05E
:1005B000809152028C1710F4C0915202EFE2F2E0E7
:1005C000A5E5B2E080E08C1355C08C2FDF91CF9170
:1005D0001F910F91FF90EF90DF90CF900895809141
:1005E000770290917802A0917902B0917A02892BDA
:1005F0008A2B8B2B09F484CF0E94CE0000917702C6
:10060000109178022091790230917A026C197D095B
:100610008E099F09061717072807390708F070CFBA
:10062000809176020E944E02C0E0CFCF85EEB5CF1A
:100630008091770290917802A0917902B0917A022C
:10064000892B8A2B8B2B09F4AECF0E94CE00009110
:100650007702109178022091790230917A026C1918
:100660007D098E099F09061717072807390708F023
:100670009ACFD6CF91919D938F5FA5CF8F929F9266
:10068000AF92BF92CF92DF92EF92FF920F931F93A0
:10069000CF93DF93D0912E02D13208F0D7C0182F1C
:1006A000C0912D020E94CE006B017C0180917502E9
:1006B00081116BC082E080937502109354028FEF1A
:1006C0008093530210925202D0935102ADE0B2E0F7
:1006D000EFE2F2E080E0D81391C0109250028091D6
:1006E0005002CC0FC82BC093500280914F02813032
:1006F00009F088C010924F020E94CE006B017C016D
:10070000809150028093BB00809177029091780293
:10071000A0917902B0917A02892B8A2B8B2BA1F0C0
:100720000E94CE0000917702109178022091790208
:1007300030917A026C197D098E099F0906171707F7
:100740002807390708F442C08091BC0083FDD8CF48
:1007500085EC8093BC000E94CE006B017C018091EF
:100760007502823009F450C0809153028F3F09F422
:100770006FC080915302803209F46CC080915302A3
:10078000803309F469C084E026C08091770290919B
:100790007802A0917902B0917A02892B8A2B8B2B57
:1007A00009F484CF0E94CE00809077029090780266
:1007B000A0907902B0907A026C197D098E099F0988
:1007C00086169706A806B90608F070CF80917602C3
:1007D0000E944E0285E010920C0210922E0210929E
:1007E0000B02DF91CF911F910F91FF90EF90DF905F
:1007F000CF90BF90AF909F908F9008959D919193CF
:100800008F5F69CF85EEA5CF8091770290917802B6
:10081000A0917902B0917A02892B8A2B8B2B09F453
:100820009ECF0E94CE000091770210917802209115
:10083000790230917A026C197D098E099F09061799
:1008400017072807390708F08ACFC0CF81E0C3CF48
:1008500080E0C1CF82E0BFCF83E0BDCF0895E091BB
:10086000050280910402E81730F4F0E0EB5AFD4FE6
:10087000808190E008958FEF9FEF08959091050299
:10088000809104022FEF3FEF981748F4E92FF0E032
:10089000EB5AFD4F208130E09F5F90930502C90124
:1008A0000895CF92DF92EF92FF920F931F93CF9311
:1008B000DF937C01CB018A0120910B02222389F076
:1008C000EB016B01C40ED51ECC15DD0569F06991F5
:1008D000D701ED91FC910190F081E02DC7010995C0
:1008E000F3CF642F0E940902C801DF91CF911F91BD
:1008F0000F91FF90EF90DF90CF900895CF93DF930B
:100900001F92CDB7DEB7698320910B022223F9F045
:1009100020912E02203258F021E030E0FC01338398
:10092000228390E080E00F90DF91CF910895809135
:100930000C02E82FF0E0E35FFD4F998190838F5F19
:1009400080930C0280932E0281E090E0ECCF61E076
:10095000CE0101960E940902F7CFFC01808191E04F
:1009600090930B0280932D0210920C0210922E0293
:10097000FB0160818EE193E00E947E0481E00E9491
:100980003E03811103C090E080E0089585E090E08F
:10099000089590E080E00895FC0101900020E9F7BF
:1009A0003197AF01481B590BBC018BE792E00C94C7
:1009B000FC008F929F92AF92BF920F931F93CF93A1
:1009C000DF93CDB7DEB7A1970FB6F894DEBF0FBEA9
:1009D000CDBF19A2423008F44AE08E010F5D1F4FCF
:1009E000842E912CB12CA12CA50194010E94C20A45
:1009F000E62FB901CA01EA30F4F4E05DD801EE93C4
:100A00008D01232B242B252B79F790E080E0109784
:100A100019F0CD010E94CC04A1960FB6F894DEBF68
:100A20000FBECDBFDF91CF911F910F91BF90AF90BF
:100A30009F908F900895E95CE1CFCF92DF92EF9283
:100A4000FF92CF93DF936B017C016DE28BE792E025
:100A50000E949C01EC0166277727CB016C197D0968
:100A60008E099F094AE00E94D9048C0F9D1FDF91D7
:100A7000CF91FF90EF90DF90CF900895CF93DF93C9
:100A800097FF0CC00E941D05EC0184E591E00E94D7
:100A9000CC048C0F9D1FDF91CF9108954AE00E94F6
:100AA000D904F2CFBC01990F880B990B97FD0C94D8
:100AB0001D054AE00C94D9044F925F926F927F9289
:100AC0008F929F92AF92BF92CF92DF92EF92FF925E
:100AD0000F931F93CF93DF9300D000D0CDB7DEB735
:100AE0008B016A0119821A821B821C8264E0FC015C
:100AF00080810E946F02109205028093040284306C
:100B000009F081C0CE0101967C014E0195E0890E6D
:100B1000911C57018EE193E00E943E04F501819300
:100B20005F01E815F905B1F78C81982F9C709C3016
:100B300009F058C0F601808353E0F601808187FDFB
:100B400065C08C7090E09C0136952795820F931FAD
:100B5000FC01E55EFE4F2081318142812901642E36
:100B6000062C000C7708530142018A5F9E4FFC015E
:100B7000208131814281F801108211821282138218
:100B8000F70180E090E0DC016191BA2FA92F982F46
:100B90008827862B6E2F6E196517B0F3882299224D
:100BA000AA22BB2289288A288B2809F5F80180838C
:100BB0009183A283B38390E080E00F900F900F9019
:100BC0000F90DF91CF911F910F91FF90EF90DF90E9
:100BD000CF90BF90AF909F908F907F906F905F90DD
:100BE0004F9008958B81F601808352E0A6CF2901B2
:100BF000642E062C000C7708B301A2018429952BE2
:100C0000A629B72BD3CF82E090E0D7CF84E090E045
:100C1000D4CF85ED8093BC008091770290917802CB
:100C2000A0917902B0917A020796A11DB11D23E02F
:100C3000B695A795979587952A95D1F72091BC00F1
:100C400024FD03C0109275020895409177025091DF
:100C500078026091790270917A02452B462B472BDE
:100C600069F30097A105B10541F025E32A95F1F755
:100C700000000197A109B109E1CF809176020C949F
:100C80004E021F920F920FB60F9211242F933F9393
:100C90008F939F93AF93BF9380912A0390912B03DF
:100CA000A0912C03B0912D033091060223E0230F75
:100CB0002D3758F50196A11DB11D20930602809392
:100CC0002A0390932B03A0932C03B0932D038091C0
:100CD000070290910802A0910902B0910A020196C0
:100CE000A11DB11D8093070290930802A0930902F1
:100CF000B0930A02BF91AF919F918F913F912F9135
:100D00000F900FBE0F901F90189526E8230F0296A4
:100D1000A11DB11DD2CF1F920F920FB60F921124B9
:100D20002F933F934F935F936F937F938F939F93F3
:100D3000AF93BF93EF93FF938BE792E00E947A010A
:100D4000FF91EF91BF91AF919F918F917F916F91A3
:100D50005F914F913F912F910F900FBE0F901F9079
:100D600018951F920F920FB60F9211242F938F9305
:100D70009F93EF93FF93E0918B02F0918C0280811F
:100D8000E0919102F091920282FD1BC090818091CE
:100D900094028F5F8F7320919502821741F0E0914A
:100DA0009402F0E0E558FD4F958F80939402FF91F7
:100DB000EF919F918F912F910F900FBE0F901F90E9
:100DC00018958081F4CF1F920F920FB60F921124C5
:100DD0002F933F934F935F936F937F938F939F9343
:100DE000AF93BF93EF93FF938091B900887F8036D4
:100DF00009F44AC0F0F5883209F4A7C018F580312B
:100E000009F49BC0B8F4882309F4F9C0883009F4C8
:100E100094C0FF91EF91BF91AF919F918F917F917E
:100E20006F915F914F913F912F910F900FBE0F9057
:100E30001F901895883109F488C0803251F780934B
:100E4000530214C0803409F49DC040F48033B9F3D8
:100E50008833F9F68093530285ECB0C0803509F4ED
:100E600085C0883509F496C0883499F60E94090631
:100E7000D0CF883909F48CC038F5883729F050F480
:100E8000883611F0803729F683E08093750210923E
:100E9000FF0157C0883809F47BC0803919F08038C9
:100EA00009F0B7CF8091FF01803208F071C0E09166
:100EB000FF0181E08E0F8093FF018091BB00F0E085
:100EC000E152FE4F80833DC0803B39F0E0F4803A30
:100ED00009F479C0883A09F09CCF84E080937502C8
:100EE0001092DE011092DD01E0910202F091030206
:100EF00009958091DD0181110FC081E08093DD01B2
:100F00001092BD0109C0803C09F4A6CF883C09F4C9
:100F1000A3CF883B09F07DCFE091DE0181E08E0F09
:100F20008093DE01F0E0E354FE4F80818093BB00AC
:100F30009091DE018091DD0129C080915002809363
:100F4000BB0085EC8093BC0064CF909152028091ED
:100F50005102981758F5E091520281E08E0F80936C
:100F60005202F0E0E15DFD4F8081E9CFE091520255
:100F700081E08E0F809352028091BB00F0E0E15D32
:100F8000FD4F808390915202809151029817C8F2D0
:100F900085E8D8CFE091520281E08E0F8093520213
:100FA0008091BB00F0E0E15DFD4F808380915402B1
:100FB00081115CCF81E080934F0284EA8093BC0072
:100FC0001092750226CF85EC8093BC0010927502BA
:100FD0008091FF01803230F4E091FF01F0E0E152B6
:100FE000FE4F10826091FF0170E0E0910002F091ED
:100FF00001028FED91E009951092FF010ACF109246
:10100000530234CFEBE7F2E01382128288EE93E0D2
:10101000A0E0B0E084839583A683B78324E331E026
:101020003183208325EC30E03587248724EC30E0C1
:101030003787268720EC30E0318B208B21EC30E0A5
:10104000338B228B22EC30E0358B248B26EC30E086
:10105000378B268B118E128E138E148E10921D03D9
:1010600020E220931C0320E420931B0320E620931E
:101070001A0320E12093190324E0209336031092F1
:101080001803EEE1F3E01382128284839583A68332
:10109000B78386E491E0918380838BE68093350368
:1010A00088E6809334038CE6809333032FB7F8945B
:1010B00080912A0390912B03A0912C03B0912D03D2
:1010C0002FBF80932F0390933003A0933103B093ED
:1010D00032038091360380932E030895CF93DF93DC
:1010E000CDB7DEB762970FB6F894DEBF0FBECDBFA7
:1010F000789484B5826084BD84B5816084BD85B5F3
:10110000826085BD85B5816085BD80916E008160FE
:1011100080936E00109281008091810082608093A4
:1011200081008091810081608093810080918000A6
:101130008160809380008091B10084608093B100D1
:101140008091B00081608093B00080917A008460CB
:1011500080937A0080917A00826080937A008091F7
:101160007A00816080937A0080917A008068809311
:101170007A001092C100E0918B02F0918C0282E023
:101180008083E0918702F09188021082E0918902C9
:10119000F0918A0280E1808310929302E0918F02A5
:1011A000F091900286E08083E0918D02F0918E02B2
:1011B000808180618083E0918D02F0918E02808138
:1011C00088608083E0918D02F0918E02808180683A
:1011D0008083E0918D02F0918E0280818F7D8083EB
:1011E000109205021092040210920C0210922E022C
:1011F0000E9430028AEF90E09093030280930202F3
:101200008BEF90E0909301028093000287E591E0DC
:101210000E94CC0481E080930B0210922D02109268
:101220000C0210922E0266E08EE193E00E947E0492
:1012300081E00E943E030E94CE004B015C010E94AF
:10124000CE00681979098A099B09683E73408105B7
:101250009105A8F38DE791E00E94CC0484E591E02C
:101260000E94CC0461E088E60E946F0210920502A1
:1012700080930402811108C083E891E00E94CC04AD
:1012800084E591E00E94CC0480E0E82E80E0F82E16
:1012900001E010E01A8A198A188A1F861E861D86A8
:1012A00080910401909105018230910509F41DC1DE
:1012B0000CF005C1019709F40BC1809102019091D6
:1012C00003018230910509F42CC10CF014C101977F
:1012D00009F41AC1809100019091010182309105B9
:1012E00009F43BC10CF023C1019709F429C1BE01E7
:1012F0006E5E7F4F85E393E00E94AD04BE016F5E9A
:101300007F4F84E393E00E94AD04BE01605F7F4F96
:1013100083E393E00E94AD04AE01415F5F4FBE01E5
:10132000675F7F4F85E393E00E945C05AE01425FFB
:101330005F4FBE016B5F7F4F84E393E00E945C05CB
:10134000AE01435F5F4FBE016F5F7F4F83E393E06A
:101350000E945C058F8587FD5EC082E991E00E9456
:10136000CC0480910401909105010E94520589EA04
:1013700091E00E94CC0469857A858B859C850E94CA
:101380003E0580910401909105010197B9F58FB751
:10139000F89480902A0390902B03A0902C03B09097
:1013A0002D038FBF80912F0390913003A0913103C3
:1013B000B0913203881A990AAA0ABB0A8AE991E015
:1013C0000E94CC044AE0C501B4010E94D90484E51E
:1013D00091E00E94CC042FB7F89480912A03909159
:1013E0002B03A0912C03B0912D032FBF80932F03CB
:1013F00090933003A0933103B093320380910401A2
:101400009091050101968530910509F4ACC0909347
:101410000501809304018E8587FD21C08CEA91E04F
:101420000E94CC0480910201909103010E94520518
:1014300089EA91E00E94CC046D817E818F8198853C
:101440000E943E0580910201909103010196853032
:10145000910509F48DC090930301809302018D855D
:1014600087FD21C084EB91E00E94CC0480910001B3
:10147000909101010E94520589EA91E00E94CC04FA
:1014800069817A818B819C810E943E058091000157
:101490009091010101968530910509F46EC09093F9
:1014A000010180930001E114F10409F4F3CE0E94DC
:1014B0006601882309F4EECE0E940000EBCE833053
:1014C0009105B1F0049709F0F8CE80911A0302C09B
:1014D00080911D0390911903892B90912E03892BE4
:1014E00090911803892B8A8BE8CE80911C03F2CF50
:1014F00080911B03EFCF83309105B1F0049709F081
:10150000E9CE80911A0302C080911D0390911903C6
:10151000892B90912E03892B90911803892B898B0D
:10152000D9CE80911C03F2CF80911B03EFCF833083
:101530009105B1F0049709F0DACE80911A0302C048
:1015400080911D0390911903892B90912E03892B73
:1015500090911803892B888BCACE80911C03F2CFFF
:1015600080911B03EFCF109305010093040153CF2B
:10157000109303010093020172CF109301010093B5
:10158000000191CFA1E21A2EAA1BBB1BFD010DC0C9
:10159000AA1FBB1FEE1FFF1FA217B307E407F50723
:1015A00020F0A21BB30BE40BF50B661F771F881FFF
:1015B000991F1A9469F760957095809590959B0195
:1015C000AC01BD01CF010895EE0FFF1F0590F4910E
:0815D000E02D0994F894FFCF0F
:1015D80001000100010000F0FF00000000C0FF0052
:1015E80000000000FF0000000000FC0008000000F0
:1015F8000000200000000000800000000000000241
:10160800000000009C01FC002901E9015A01380191
:101618004C01000000007E045104C9042E04F300AC
:101628003E042F040D0A0043616C6C696E672072DA
:1016380065736574206F6620616C6C204D43503370
:101648003432342063686970732E2E2E00446F6E16
:10165800652E00414443204E4F5420464F554E447A
:101668002E00414443312043480043483120536110
:101678006D706C652054696D653A200041444332B1
:0C16880020434800414443332043480005
:00000001FF
